{
  "contractName": "Vote",
  "abi": [
    {
      "constant": true,
      "inputs": [],
      "name": "candidate1",
      "outputs": [
        {
          "name": "",
          "type": "uint256"
        }
      ],
      "payable": false,
      "stateMutability": "view",
      "type": "function"
    },
    {
      "constant": true,
      "inputs": [],
      "name": "candidate2",
      "outputs": [
        {
          "name": "",
          "type": "uint256"
        }
      ],
      "payable": false,
      "stateMutability": "view",
      "type": "function"
    },
    {
      "constant": true,
      "inputs": [
        {
          "name": "",
          "type": "address"
        }
      ],
      "name": "voted",
      "outputs": [
        {
          "name": "",
          "type": "bool"
        }
      ],
      "payable": false,
      "stateMutability": "view",
      "type": "function"
    },
    {
      "constant": false,
      "inputs": [
        {
          "name": "candidate",
          "type": "uint256"
        }
      ],
      "name": "castVote",
      "outputs": [],
      "payable": false,
      "stateMutability": "nonpayable",
      "type": "function"
    }
  ],
  "bytecode": "0x6060604052341561000f57600080fd5b6102828061001e6000396000f300606060405260043610610062576000357c0100000000000000000000000000000000000000000000000000000000900463ffffffff16806301243fce146100675780633eb76b9c146100905780635b57014c146100b3578063aec2ccae146100dc575b600080fd5b341561007257600080fd5b61007a61012d565b6040518082815260200191505060405180910390f35b341561009b57600080fd5b6100b16004808035906020019091905050610133565b005b34156100be57600080fd5b6100c6610230565b6040518082815260200191505060405180910390f35b34156100e757600080fd5b610113600480803573ffffffffffffffffffffffffffffffffffffffff16906020019091905050610236565b604051808215151515815260200191505060405180910390f35b60005481565b600260003373ffffffffffffffffffffffffffffffffffffffff1673ffffffffffffffffffffffffffffffffffffffff16815260200190815260200160002060009054906101000a900460ff16158015610198575060018114806101975750600281145b5b15156101a357600080fd5b60018114156101c25760008081548092919060010191905055506101d5565b6001600081548092919060010191905055505b6001600260003373ffffffffffffffffffffffffffffffffffffffff1673ffffffffffffffffffffffffffffffffffffffff16815260200190815260200160002060006101000a81548160ff02191690831515021790555050565b60015481565b60026020528060005260406000206000915054906101000a900460ff16815600a165627a7a72305820b0bb7c0f974449408a0e4c4394b7ab043bf236fd8800c41120407a8314d5b6a50029",
  "source": "pragma solidity ^0.4.16;\r\n\r\ncontract Vote {\r\n    \r\n    uint public candidate1;\r\n    uint public candidate2;\r\n    mapping (address => bool) public voted;\r\n\r\n\tfunction castVote(uint candidate) public  {\r\n\t\trequire(!voted[msg.sender] && (candidate == 1 || candidate == 2));\r\n        if(candidate == 1){\r\n            candidate1++;\r\n        }else{\r\n            candidate2++;            \r\n        }\r\n        voted[msg.sender] = true;\r\n\t}\r\n}",
  "sourcePath": "C:\\Users\\blaize\\Desktop\\blockchain-meetup\\dapp-metamask\\truffle\\contracts\\vote.sol",
  "compiler": {
    "name": "solc",
    "version": "0.4.19+commit.c4cbbb05.Emscripten.clang"
  },
  "schemaVersion": "2.0.0",
  "updatedAt": "2018-07-17T23:30:34.996Z"
}