{
  "contractName": "vote",
  "abi": [
    {
      "constant": true,
      "inputs": [
        {
          "name": "",
          "type": "address"
        }
      ],
      "name": "voted",
      "outputs": [
        {
          "name": "",
          "type": "bool"
        }
      ],
      "payable": false,
      "stateMutability": "view",
      "type": "function"
    },
    {
      "anonymous": false,
      "inputs": [
        {
          "indexed": false,
          "name": "eventID",
          "type": "uint256"
        },
        {
          "indexed": false,
          "name": "message",
          "type": "string"
        }
      ],
      "name": "voteEvent",
      "type": "event"
    },
    {
      "constant": false,
      "inputs": [
        {
          "name": "voter",
          "type": "address"
        },
        {
          "name": "candidate",
          "type": "uint256"
        }
      ],
      "name": "castVote",
      "outputs": [],
      "payable": false,
      "stateMutability": "nonpayable",
      "type": "function"
    },
    {
      "constant": true,
      "inputs": [
        {
          "name": "entityAddress",
          "type": "address"
        }
      ],
      "name": "hasVoted",
      "outputs": [
        {
          "name": "voteRecordExists",
          "type": "bool"
        }
      ],
      "payable": false,
      "stateMutability": "view",
      "type": "function"
    },
    {
      "constant": true,
      "inputs": [
        {
          "name": "candidate",
          "type": "uint256"
        }
      ],
      "name": "voteCount",
      "outputs": [
        {
          "name": "votes",
          "type": "uint256"
        }
      ],
      "payable": false,
      "stateMutability": "view",
      "type": "function"
    }
  ],
  "bytecode": "0x6060604052341561000f57600080fd5b61045d8061001e6000396000f300606060405260043610610062576000357c0100000000000000000000000000000000000000000000000000000000900463ffffffff16806309eef43e146100675780634fc8a20d146100b8578063aec2ccae146100ef578063ff91bb4514610140575b600080fd5b341561007257600080fd5b61009e600480803573ffffffffffffffffffffffffffffffffffffffff16906020019091905050610182565b604051808215151515815260200191505060405180910390f35b34156100c357600080fd5b6100d960048080359060200190919050506101d7565b6040518082815260200191505060405180910390f35b34156100fa57600080fd5b610126600480803573ffffffffffffffffffffffffffffffffffffffff16906020019091905050610209565b604051808215151515815260200191505060405180910390f35b341561014b57600080fd5b610180600480803573ffffffffffffffffffffffffffffffffffffffff16906020019091908035906020019091905050610229565b005b60008060008373ffffffffffffffffffffffffffffffffffffffff1673ffffffffffffffffffffffffffffffffffffffff16815260200190815260200160002060009054906101000a900460ff169050919050565b600060018214156101ec576001549050610204565b60028214156101ff576002549050610204565b600080fd5b919050565b60006020528060005260406000206000915054906101000a900460ff1681565b61023282610182565b156102ad577fdb74a9b8d9688b5ea88653b70e8d22ec974921df6038588022673cced748da19600060405180828152602001806020018281038252601a8152602001807f4163636f756e742068617320616c726561647920766f7465642e0000000000008152506020019250505060405180910390a161042d565b60018114156102cd57600160008154809291906001019190505550610364565b60028114156102ed57600260008154809291906001019190505550610363565b7fdb74a9b8d9688b5ea88653b70e8d22ec974921df6038588022673cced748da1960016040518082815260200180602001828103825260168152602001807f4e6f7420612076616c69642063616e6469646174652e000000000000000000008152506020019250505060405180910390a161042d565b5b60016000808473ffffffffffffffffffffffffffffffffffffffff1673ffffffffffffffffffffffffffffffffffffffff16815260200190815260200160002060006101000a81548160ff0219169083151502179055507fdb74a9b8d9688b5ea88653b70e8d22ec974921df6038588022673cced748da19600260405180828152602001806020018281038252600a8152602001807f566f746520636173742e000000000000000000000000000000000000000000008152506020019250505060405180910390a15b50505600a165627a7a72305820c6bb9ef3e842733ffff71e9b0bd4f97c4de2488a6fd49f477114441321822aab0029",
  "source": "pragma solidity ^0.4.0;\r\n\r\ncontract vote {\r\n\t\r\n\tmapping (address => bool) public voted;\r\n\tuint clintonCount;\r\n\tuint trumpCount;\r\n\t\r\n\tevent voteEvent(uint eventID, string message);\r\n\t\r\n\tfunction castVote(address voter, uint candidate) public {\r\n\t\tif(hasVoted(voter)){\r\n\t\t\tvoteEvent(0, \"Account has already voted.\");\r\n\t\t\treturn;\r\n\t\t}\r\n        if (candidate == 1){clintonCount++;}\r\n\t\telse if (candidate == 2){trumpCount++;}\r\n\t\telse{\r\n\t\t\tvoteEvent(1, \"Not a valid candidate.\");\r\n\t\t\treturn;\r\n\t\t}\r\n\t\tvoted[voter] = true;\r\n\t\tvoteEvent(2, \"Vote cast.\");\r\n\t\treturn;\r\n    }\r\n\r\n\tfunction hasVoted(address entityAddress) public constant returns(bool voteRecordExists) {\r\n\t\treturn voted[entityAddress];\r\n\t}\r\n\t\r\n\tfunction voteCount(uint candidate) public constant returns(uint votes) {\r\n        if (candidate == 1){return clintonCount;}\r\n\t\telse if (candidate == 2){return trumpCount;}\r\n\t\telse{\r\n\t\t\trevert();\r\n\t\t}\r\n\t}\r\n\t\t\r\n}",
  "sourcePath": "C:\\Users\\blaize\\Desktop\\blockchain-meetup\\vote-app-node\\truffle\\contracts\\vote.sol",
  "compiler": {
    "name": "solc",
    "version": "0.4.19+commit.c4cbbb05.Emscripten.clang"
  },
  "schemaVersion": "2.0.0",
  "updatedAt": "2018-07-17T23:45:53.413Z"
}